{
  "contractName": "BnBooking",
  "abi": [
    {
      "inputs": [
        {
          "internalType": "uint256",
          "name": "_feeRate",
          "type": "uint256"
        },
        {
          "internalType": "address payable",
          "name": "_feeReceiver",
          "type": "address"
        }
      ],
      "stateMutability": "nonpayable",
      "type": "constructor"
    },
    {
      "anonymous": false,
      "inputs": [
        {
          "indexed": true,
          "internalType": "uint256",
          "name": "roomId",
          "type": "uint256"
        },
        {
          "indexed": true,
          "internalType": "address",
          "name": "booker",
          "type": "address"
        },
        {
          "indexed": true,
          "internalType": "address",
          "name": "owner",
          "type": "address"
        },
        {
          "indexed": false,
          "internalType": "uint256",
          "name": "day",
          "type": "uint256"
        },
        {
          "indexed": false,
          "internalType": "uint256",
          "name": "month",
          "type": "uint256"
        },
        {
          "indexed": false,
          "internalType": "uint256",
          "name": "year",
          "type": "uint256"
        }
      ],
      "name": "BookIntentCancelled",
      "type": "event"
    },
    {
      "anonymous": false,
      "inputs": [
        {
          "indexed": true,
          "internalType": "uint256",
          "name": "roomId",
          "type": "uint256"
        },
        {
          "indexed": true,
          "internalType": "address",
          "name": "booker",
          "type": "address"
        },
        {
          "indexed": true,
          "internalType": "address",
          "name": "owner",
          "type": "address"
        },
        {
          "indexed": false,
          "internalType": "uint256",
          "name": "price",
          "type": "uint256"
        },
        {
          "indexed": false,
          "internalType": "uint256",
          "name": "day",
          "type": "uint256"
        },
        {
          "indexed": false,
          "internalType": "uint256",
          "name": "month",
          "type": "uint256"
        },
        {
          "indexed": false,
          "internalType": "uint256",
          "name": "year",
          "type": "uint256"
        }
      ],
      "name": "BookIntentCreated",
      "type": "event"
    },
    {
      "anonymous": false,
      "inputs": [
        {
          "indexed": true,
          "internalType": "uint256",
          "name": "roomId",
          "type": "uint256"
        },
        {
          "indexed": true,
          "internalType": "address",
          "name": "booker",
          "type": "address"
        },
        {
          "indexed": true,
          "internalType": "address",
          "name": "owner",
          "type": "address"
        },
        {
          "indexed": false,
          "internalType": "uint256",
          "name": "price",
          "type": "uint256"
        },
        {
          "indexed": false,
          "internalType": "uint256",
          "name": "day",
          "type": "uint256"
        },
        {
          "indexed": false,
          "internalType": "uint256",
          "name": "month",
          "type": "uint256"
        },
        {
          "indexed": false,
          "internalType": "uint256",
          "name": "year",
          "type": "uint256"
        }
      ],
      "name": "BookIntentRejected",
      "type": "event"
    },
    {
      "anonymous": false,
      "inputs": [
        {
          "indexed": true,
          "internalType": "address",
          "name": "previousOwner",
          "type": "address"
        },
        {
          "indexed": true,
          "internalType": "address",
          "name": "newOwner",
          "type": "address"
        }
      ],
      "name": "OwnershipTransferred",
      "type": "event"
    },
    {
      "anonymous": false,
      "inputs": [
        {
          "indexed": true,
          "internalType": "address",
          "name": "paymentReceiver",
          "type": "address"
        },
        {
          "indexed": false,
          "internalType": "uint256",
          "name": "price",
          "type": "uint256"
        }
      ],
      "name": "PaymentSent",
      "type": "event"
    },
    {
      "anonymous": false,
      "inputs": [
        {
          "indexed": true,
          "internalType": "address",
          "name": "owner",
          "type": "address"
        },
        {
          "indexed": true,
          "internalType": "uint256",
          "name": "roomId",
          "type": "uint256"
        },
        {
          "indexed": false,
          "internalType": "uint256",
          "name": "newPrice",
          "type": "uint256"
        }
      ],
      "name": "PriceChanged",
      "type": "event"
    },
    {
      "anonymous": false,
      "inputs": [
        {
          "indexed": true,
          "internalType": "uint256",
          "name": "roomId",
          "type": "uint256"
        },
        {
          "indexed": true,
          "internalType": "address",
          "name": "booker",
          "type": "address"
        },
        {
          "indexed": true,
          "internalType": "address",
          "name": "owner",
          "type": "address"
        },
        {
          "indexed": false,
          "internalType": "uint256",
          "name": "price",
          "type": "uint256"
        },
        {
          "indexed": false,
          "internalType": "uint256",
          "name": "day",
          "type": "uint256"
        },
        {
          "indexed": false,
          "internalType": "uint256",
          "name": "month",
          "type": "uint256"
        },
        {
          "indexed": false,
          "internalType": "uint256",
          "name": "year",
          "type": "uint256"
        }
      ],
      "name": "RoomBooked",
      "type": "event"
    },
    {
      "anonymous": false,
      "inputs": [
        {
          "indexed": true,
          "internalType": "address",
          "name": "owner",
          "type": "address"
        },
        {
          "indexed": true,
          "internalType": "uint256",
          "name": "roomId",
          "type": "uint256"
        },
        {
          "indexed": false,
          "internalType": "uint256",
          "name": "price",
          "type": "uint256"
        }
      ],
      "name": "RoomCreated",
      "type": "event"
    },
    {
      "anonymous": false,
      "inputs": [
        {
          "indexed": true,
          "internalType": "address",
          "name": "owner",
          "type": "address"
        },
        {
          "indexed": true,
          "internalType": "uint256",
          "name": "roomId",
          "type": "uint256"
        }
      ],
      "name": "RoomRemoved",
      "type": "event"
    },
    {
      "inputs": [],
      "name": "FEE_RATE_PRECISION",
      "outputs": [
        {
          "internalType": "uint256",
          "name": "",
          "type": "uint256"
        }
      ],
      "stateMutability": "view",
      "type": "function",
      "constant": true
    },
    {
      "inputs": [],
      "name": "MAX_INTENTS",
      "outputs": [
        {
          "internalType": "uint256",
          "name": "",
          "type": "uint256"
        }
      ],
      "stateMutability": "view",
      "type": "function",
      "constant": true
    },
    {
      "inputs": [],
      "name": "feeRate",
      "outputs": [
        {
          "internalType": "uint256",
          "name": "",
          "type": "uint256"
        }
      ],
      "stateMutability": "view",
      "type": "function",
      "constant": true
    },
    {
      "inputs": [],
      "name": "feeReceiver",
      "outputs": [
        {
          "internalType": "address payable",
          "name": "",
          "type": "address"
        }
      ],
      "stateMutability": "view",
      "type": "function",
      "constant": true
    },
    {
      "inputs": [],
      "name": "nextRoomId",
      "outputs": [
        {
          "internalType": "uint256",
          "name": "",
          "type": "uint256"
        }
      ],
      "stateMutability": "view",
      "type": "function",
      "constant": true
    },
    {
      "inputs": [],
      "name": "owner",
      "outputs": [
        {
          "internalType": "address",
          "name": "",
          "type": "address"
        }
      ],
      "stateMutability": "view",
      "type": "function",
      "constant": true
    },
    {
      "inputs": [],
      "name": "renounceOwnership",
      "outputs": [],
      "stateMutability": "nonpayable",
      "type": "function"
    },
    {
      "inputs": [
        {
          "internalType": "uint256",
          "name": "",
          "type": "uint256"
        }
      ],
      "name": "rooms",
      "outputs": [
        {
          "internalType": "uint256",
          "name": "roomId",
          "type": "uint256"
        },
        {
          "internalType": "address",
          "name": "owner",
          "type": "address"
        },
        {
          "internalType": "uint256",
          "name": "price",
          "type": "uint256"
        }
      ],
      "stateMutability": "view",
      "type": "function",
      "constant": true
    },
    {
      "inputs": [
        {
          "internalType": "address",
          "name": "newOwner",
          "type": "address"
        }
      ],
      "name": "transferOwnership",
      "outputs": [],
      "stateMutability": "nonpayable",
      "type": "function"
    },
    {
      "inputs": [
        {
          "internalType": "uint256",
          "name": "price",
          "type": "uint256"
        }
      ],
      "name": "createRoom",
      "outputs": [],
      "stateMutability": "nonpayable",
      "type": "function"
    },
    {
      "inputs": [
        {
          "internalType": "uint256",
          "name": "newFeeRate",
          "type": "uint256"
        }
      ],
      "name": "setFeeRate",
      "outputs": [],
      "stateMutability": "nonpayable",
      "type": "function"
    },
    {
      "inputs": [
        {
          "internalType": "address payable",
          "name": "newFeeReceiver",
          "type": "address"
        }
      ],
      "name": "setFeeReceiver",
      "outputs": [],
      "stateMutability": "nonpayable",
      "type": "function"
    },
    {
      "inputs": [
        {
          "internalType": "uint256",
          "name": "roomId",
          "type": "uint256"
        },
        {
          "internalType": "uint256",
          "name": "day",
          "type": "uint256"
        },
        {
          "internalType": "uint256",
          "name": "month",
          "type": "uint256"
        },
        {
          "internalType": "uint256",
          "name": "year",
          "type": "uint256"
        }
      ],
      "name": "booked",
      "outputs": [
        {
          "internalType": "bool",
          "name": "",
          "type": "bool"
        }
      ],
      "stateMutability": "view",
      "type": "function",
      "constant": true
    },
    {
      "inputs": [
        {
          "internalType": "uint256",
          "name": "roomId",
          "type": "uint256"
        },
        {
          "internalType": "uint256",
          "name": "day",
          "type": "uint256"
        },
        {
          "internalType": "uint256",
          "name": "month",
          "type": "uint256"
        },
        {
          "internalType": "uint256",
          "name": "year",
          "type": "uint256"
        }
      ],
      "name": "intentBook",
      "outputs": [],
      "stateMutability": "payable",
      "type": "function",
      "payable": true
    },
    {
      "inputs": [
        {
          "internalType": "uint256",
          "name": "roomId",
          "type": "uint256"
        },
        {
          "internalType": "uint256",
          "name": "initialDay",
          "type": "uint256"
        },
        {
          "internalType": "uint256",
          "name": "initialMonth",
          "type": "uint256"
        },
        {
          "internalType": "uint256",
          "name": "initialYear",
          "type": "uint256"
        },
        {
          "internalType": "uint256",
          "name": "lastDay",
          "type": "uint256"
        },
        {
          "internalType": "uint256",
          "name": "lastMonth",
          "type": "uint256"
        },
        {
          "internalType": "uint256",
          "name": "lastYear",
          "type": "uint256"
        }
      ],
      "name": "intentBookingBatch",
      "outputs": [],
      "stateMutability": "payable",
      "type": "function",
      "payable": true
    },
    {
      "inputs": [
        {
          "internalType": "uint256",
          "name": "roomId",
          "type": "uint256"
        },
        {
          "internalType": "address payable",
          "name": "booker",
          "type": "address"
        },
        {
          "internalType": "uint256",
          "name": "day",
          "type": "uint256"
        },
        {
          "internalType": "uint256",
          "name": "month",
          "type": "uint256"
        },
        {
          "internalType": "uint256",
          "name": "year",
          "type": "uint256"
        }
      ],
      "name": "reject",
      "outputs": [],
      "stateMutability": "nonpayable",
      "type": "function"
    },
    {
      "inputs": [
        {
          "internalType": "uint256",
          "name": "roomId",
          "type": "uint256"
        },
        {
          "internalType": "address payable",
          "name": "booker",
          "type": "address"
        },
        {
          "internalType": "uint256",
          "name": "initialDay",
          "type": "uint256"
        },
        {
          "internalType": "uint256",
          "name": "initialMonth",
          "type": "uint256"
        },
        {
          "internalType": "uint256",
          "name": "initialYear",
          "type": "uint256"
        },
        {
          "internalType": "uint256",
          "name": "lastDay",
          "type": "uint256"
        },
        {
          "internalType": "uint256",
          "name": "lastMonth",
          "type": "uint256"
        },
        {
          "internalType": "uint256",
          "name": "lastYear",
          "type": "uint256"
        }
      ],
      "name": "rejectBatch",
      "outputs": [],
      "stateMutability": "payable",
      "type": "function",
      "payable": true
    },
    {
      "inputs": [
        {
          "internalType": "uint256",
          "name": "roomId",
          "type": "uint256"
        },
        {
          "internalType": "address",
          "name": "booker",
          "type": "address"
        },
        {
          "internalType": "uint256",
          "name": "day",
          "type": "uint256"
        },
        {
          "internalType": "uint256",
          "name": "month",
          "type": "uint256"
        },
        {
          "internalType": "uint256",
          "name": "year",
          "type": "uint256"
        }
      ],
      "name": "accept",
      "outputs": [],
      "stateMutability": "nonpayable",
      "type": "function"
    },
    {
      "inputs": [
        {
          "internalType": "uint256",
          "name": "roomId",
          "type": "uint256"
        },
        {
          "internalType": "address",
          "name": "booker",
          "type": "address"
        },
        {
          "internalType": "uint256",
          "name": "initialDay",
          "type": "uint256"
        },
        {
          "internalType": "uint256",
          "name": "initialMonth",
          "type": "uint256"
        },
        {
          "internalType": "uint256",
          "name": "initialYear",
          "type": "uint256"
        },
        {
          "internalType": "uint256",
          "name": "lastDay",
          "type": "uint256"
        },
        {
          "internalType": "uint256",
          "name": "lastMonth",
          "type": "uint256"
        },
        {
          "internalType": "uint256",
          "name": "lastYear",
          "type": "uint256"
        }
      ],
      "name": "acceptBatch",
      "outputs": [],
      "stateMutability": "payable",
      "type": "function",
      "payable": true
    },
    {
      "inputs": [
        {
          "internalType": "uint256",
          "name": "roomId",
          "type": "uint256"
        },
        {
          "internalType": "uint256",
          "name": "initialDay",
          "type": "uint256"
        },
        {
          "internalType": "uint256",
          "name": "initialMonth",
          "type": "uint256"
        },
        {
          "internalType": "uint256",
          "name": "initialYear",
          "type": "uint256"
        },
        {
          "internalType": "uint256",
          "name": "lastDay",
          "type": "uint256"
        },
        {
          "internalType": "uint256",
          "name": "lastMonth",
          "type": "uint256"
        },
        {
          "internalType": "uint256",
          "name": "lastYear",
          "type": "uint256"
        }
      ],
      "name": "cancelBatch",
      "outputs": [],
      "stateMutability": "nonpayable",
      "type": "function"
    },
    {
      "inputs": [
        {
          "internalType": "uint256",
          "name": "roomId",
          "type": "uint256"
        }
      ],
      "name": "removeRoom",
      "outputs": [],
      "stateMutability": "nonpayable",
      "type": "function"
    },
    {
      "inputs": [
        {
          "internalType": "uint256",
          "name": "roomId",
          "type": "uint256"
        },
        {
          "internalType": "uint256",
          "name": "newPrice",
          "type": "uint256"
        }
      ],
      "name": "changePrice",
      "outputs": [],
      "stateMutability": "nonpayable",
      "type": "function"
    }
  ],
  "bytecode": "0x608060405260006005553480156200001657600080fd5b5060405162003da938038062003da9833981810160405260408110156200003c57600080fd5b8101908080519060200190929190805190602001909291905050506000620000696200015760201b60201c565b9050806000806101000a81548173ffffffffffffffffffffffffffffffffffffffff021916908373ffffffffffffffffffffffffffffffffffffffff1602179055508073ffffffffffffffffffffffffffffffffffffffff16600073ffffffffffffffffffffffffffffffffffffffff167f8be0079c531659141344cd1fd0a4f28419497f9722a3daafe3b4186f6b6457e060405160405180910390a3508160068190555080600760006101000a81548173ffffffffffffffffffffffffffffffffffffffff021916908373ffffffffffffffffffffffffffffffffffffffff16021790555050506200015f565b600033905090565b613c3a806200016f6000396000f3fe6080604052600436106101355760003560e01c8063952d4af5116100ab578063b3f006741161006f578063b3f006741461066c578063ba0038fb146106ad578063bbba825714610726578063efdcd97414610761578063f2fde38b146107b2578063f4ca4d1d1461080357610135565b8063952d4af5146104dc578063978bbdb914610507578063ab4989f414610532578063acd112d51461059c578063b3de019c1461062757610135565b8063541116a1116100fd578063541116a1146102bd5780636235193214610309578063715018a6146103825780637890c502146103995780638da5cb5b146104105780638e558aad1461045157610135565b806307a52cab1461013a5780630f466f96146101655780631bae0ac8146101d457806345596e2e14610247578063461d60be14610282575b600080fd5b34801561014657600080fd5b5061014f61082e565b6040518082815260200191505060405180910390f35b34801561017157600080fd5b506101bc6004803603608081101561018857600080fd5b8101908080359060200190929190803590602001909291908035906020019092919080359060200190929190505050610834565b60405180821515815260200191505060405180910390f35b3480156101e057600080fd5b5061020d600480360360208110156101f757600080fd5b8101908080359060200190929190505050610942565b604051808481526020018373ffffffffffffffffffffffffffffffffffffffff168152602001828152602001935050505060405180910390f35b34801561025357600080fd5b506102806004803603602081101561026a57600080fd5b8101908080359060200190929190505050610999565b005b34801561028e57600080fd5b506102bb600480360360208110156102a557600080fd5b8101908080359060200190929190505050610a6b565b005b610307600480360360808110156102d357600080fd5b8101908080359060200190929190803590602001909291908035906020019092919080359060200190929190505050610d83565b005b34801561031557600080fd5b50610380600480360360a081101561032c57600080fd5b8101908080359060200190929190803573ffffffffffffffffffffffffffffffffffffffff169060200190929190803590602001909291908035906020019092919080359060200190929190505050610e8c565b005b34801561038e57600080fd5b50610397610ea0565b005b3480156103a557600080fd5b5061040e600480360360e08110156103bc57600080fd5b8101908080359060200190929190803590602001909291908035906020019092919080359060200190929190803590602001909291908035906020019092919080359060200190929190505050611026565b005b34801561041c57600080fd5b5061042561107d565b604051808273ffffffffffffffffffffffffffffffffffffffff16815260200191505060405180910390f35b6104da600480360361010081101561046857600080fd5b8101908080359060200190929190803573ffffffffffffffffffffffffffffffffffffffff1690602001909291908035906020019092919080359060200190929190803590602001909291908035906020019092919080359060200190929190803590602001909291905050506110a6565b005b3480156104e857600080fd5b506104f16110ff565b6040518082815260200191505060405180910390f35b34801561051357600080fd5b5061051c611104565b6040518082815260200191505060405180910390f35b61059a600480360360e081101561054857600080fd5b810190808035906020019092919080359060200190929190803590602001909291908035906020019092919080359060200190929190803590602001909291908035906020019092919050505061110a565b005b61062560048036036101008110156105b357600080fd5b8101908080359060200190929190803573ffffffffffffffffffffffffffffffffffffffff16906020019092919080359060200190929190803590602001909291908035906020019092919080359060200190929190803590602001909291908035906020019092919050505061126c565b005b34801561063357600080fd5b5061066a6004803603604081101561064a57600080fd5b8101908080359060200190929190803590602001909291905050506113c4565b005b34801561067857600080fd5b5061068161165f565b604051808273ffffffffffffffffffffffffffffffffffffffff16815260200191505060405180910390f35b3480156106b957600080fd5b50610724600480360360a08110156106d057600080fd5b8101908080359060200190929190803573ffffffffffffffffffffffffffffffffffffffff169060200190929190803590602001909291908035906020019092919080359060200190929190505050611685565b005b34801561073257600080fd5b5061075f6004803603602081101561074957600080fd5b8101908080359060200190929190505050611854565b005b34801561076d57600080fd5b506107b06004803603602081101561078457600080fd5b81019080803573ffffffffffffffffffffffffffffffffffffffff1690602001909291905050506119eb565b005b3480156107be57600080fd5b50610801600480360360208110156107d557600080fd5b81019080803573ffffffffffffffffffffffffffffffffffffffff169060200190929190505050611af7565b005b34801561080f57600080fd5b50610818611d02565b6040518082815260200191505060405180910390f35b60055481565b6000838383610844838383611d0e565b6108b6576040517f08c379a000000000000000000000000000000000000000000000000000000000815260040180806020018281038252600c8152602001807f496e76616c69642064617465000000000000000000000000000000000000000081525060200191505060405180910390fd5b600073ffffffffffffffffffffffffffffffffffffffff16600160008a815260200190815260200160002060006108ee8a8a8a611e42565b815260200190815260200160002060009054906101000a900473ffffffffffffffffffffffffffffffffffffffff1673ffffffffffffffffffffffffffffffffffffffff1614159350505050949350505050565b6004818154811061094f57fe5b90600052602060002090600302016000915090508060000154908060010160009054906101000a900473ffffffffffffffffffffffffffffffffffffffff16908060020154905083565b6109a1611e84565b73ffffffffffffffffffffffffffffffffffffffff1660008054906101000a900473ffffffffffffffffffffffffffffffffffffffff1673ffffffffffffffffffffffffffffffffffffffff1614610a61576040517f08c379a00000000000000000000000000000000000000000000000000000000081526004018080602001828103825260208152602001807f4f776e61626c653a2063616c6c6572206973206e6f7420746865206f776e657281525060200191505060405180910390fd5b8060068190555050565b806005548110610ae3576040517f08c379a00000000000000000000000000000000000000000000000000000000081526004018080602001828103825260198152602001807f526f6f6d20686173206e6f74206265656e20637265617465640000000000000081525060200191505060405180910390fd5b600073ffffffffffffffffffffffffffffffffffffffff1660048281548110610b0857fe5b906000526020600020906003020160010160009054906101000a900473ffffffffffffffffffffffffffffffffffffffff1673ffffffffffffffffffffffffffffffffffffffff161415610bc4576040517f08c379a00000000000000000000000000000000000000000000000000000000081526004018080602001828103825260158152602001807f526f6f6d20686173206265656e2072656d6f766564000000000000000000000081525060200191505060405180910390fd5b600060048381548110610bd357fe5b906000526020600020906003020190503373ffffffffffffffffffffffffffffffffffffffff168160010160009054906101000a900473ffffffffffffffffffffffffffffffffffffffff1673ffffffffffffffffffffffffffffffffffffffff161480610c7357503373ffffffffffffffffffffffffffffffffffffffff16610c5b61107d565b73ffffffffffffffffffffffffffffffffffffffff16145b610ce5576040517f08c379a00000000000000000000000000000000000000000000000000000000081526004018080602001828103825260098152602001807f4e6f74206f776e6572000000000000000000000000000000000000000000000081525060200191505060405180910390fd5b60048381548110610cf257fe5b90600052602060002090600302016000808201600090556001820160006101000a81549073ffffffffffffffffffffffffffffffffffffffff021916905560028201600090555050823373ffffffffffffffffffffffffffffffffffffffff167fb0c1b3c32cac986f4cc1171cd7f48a359f031abfa919e63ef8e808313f08b18e60405160405180910390a3505050565b610d8f84848484611e8c565b600060048581548110610d9e57fe5b906000526020600020906003020190508060020154341015610e28576040517f08c379a00000000000000000000000000000000000000000000000000000000081526004018080602001828103825260118152602001807f5072696365206e6f74207265616368656400000000000000000000000000000081525060200191505060405180910390fd5b3373ffffffffffffffffffffffffffffffffffffffff166108fc610e5983600201543461256390919063ffffffff16565b9081150290604051600060405180830381858888f19350505050158015610e84573d6000803e3d6000fd5b505050505050565b610e9985858585856125ad565b5050505050565b610ea8611e84565b73ffffffffffffffffffffffffffffffffffffffff1660008054906101000a900473ffffffffffffffffffffffffffffffffffffffff1673ffffffffffffffffffffffffffffffffffffffff1614610f68576040517f08c379a00000000000000000000000000000000000000000000000000000000081526004018080602001828103825260208152602001807f4f776e61626c653a2063616c6c6572206973206e6f7420746865206f776e657281525060200191505060405180910390fd5b600073ffffffffffffffffffffffffffffffffffffffff1660008054906101000a900473ffffffffffffffffffffffffffffffffffffffff1673ffffffffffffffffffffffffffffffffffffffff167f8be0079c531659141344cd1fd0a4f28419497f9722a3daafe3b4186f6b6457e060405160405180910390a360008060006101000a81548173ffffffffffffffffffffffffffffffffffffffff021916908373ffffffffffffffffffffffffffffffffffffffff160217905550565b6000869050600086905060008690505b611044838383898989612a80565b15611071576110558a848484612ac7565b611060838383612eec565b809350819450829550505050611036565b50505050505050505050565b60008060009054906101000a900473ffffffffffffffffffffffffffffffffffffffff16905090565b6000869050600086905060008690505b6110c4838383898989612a80565b156110f2576110d68b8b8585856125ad565b6110e1838383612eec565b8093508194508295505050506110b6565b5050505050505050505050565b600581565b60065481565b600086905060008690506000869050600060048b8154811061112857fe5b9060005260206000209060030201905060005b6111498585858b8b8b612a80565b1561118f5761115a8c868686611e8c565b611165858585612eec565b809550819650829750505050611188826002015482612f5090919063ffffffff16565b905061113b565b80341015611205576040517f08c379a00000000000000000000000000000000000000000000000000000000081526004018080602001828103825260118152602001807f5072696365206e6f74207265616368656400000000000000000000000000000081525060200191505060405180910390fd5b3373ffffffffffffffffffffffffffffffffffffffff166108fc611232833461256390919063ffffffff16565b9081150290604051600060405180830381858888f1935050505015801561125d573d6000803e3d6000fd5b50505050505050505050505050565b6000869050600086905060008690505b61128a838383898989612a80565b156113b75761129c8b8b858585612fd8565b6000600260008d815260200190815260200160002060006112be868686611e42565b815260200190815260200160002060008c73ffffffffffffffffffffffffffffffffffffffff1673ffffffffffffffffffffffffffffffffffffffff168152602001908152602001600020905061131c8c8260010154868686613508565b600260008d8152602001908152602001600020600061133c868686611e42565b815260200190815260200160002060008c73ffffffffffffffffffffffffffffffffffffffff1673ffffffffffffffffffffffffffffffffffffffff168152602001908152602001600020600080820160009055600182016000905550506113a5848484612eec565b8094508195508296505050505061127c565b5050505050505050505050565b81600554811061143c576040517f08c379a00000000000000000000000000000000000000000000000000000000081526004018080602001828103825260198152602001807f526f6f6d20686173206e6f74206265656e20637265617465640000000000000081525060200191505060405180910390fd5b600073ffffffffffffffffffffffffffffffffffffffff166004828154811061146157fe5b906000526020600020906003020160010160009054906101000a900473ffffffffffffffffffffffffffffffffffffffff1673ffffffffffffffffffffffffffffffffffffffff16141561151d576040517f08c379a00000000000000000000000000000000000000000000000000000000081526004018080602001828103825260158152602001807f526f6f6d20686173206265656e2072656d6f766564000000000000000000000081525060200191505060405180910390fd5b60006004848154811061152c57fe5b906000526020600020906003020190503373ffffffffffffffffffffffffffffffffffffffff168160010160009054906101000a900473ffffffffffffffffffffffffffffffffffffffff1673ffffffffffffffffffffffffffffffffffffffff1614611601576040517f08c379a00000000000000000000000000000000000000000000000000000000081526004018080602001828103825260098152602001807f4e6f74206f776e6572000000000000000000000000000000000000000000000081525060200191505060405180910390fd5b828160020181905550833373ffffffffffffffffffffffffffffffffffffffff167f4d624906ce6fd4e4b8b649463516ff505029a1903a8cc34bd82b4ca0f9a479de856040518082815260200191505060405180910390a350505050565b600760009054906101000a900473ffffffffffffffffffffffffffffffffffffffff1681565b60006003600087815260200190815260200160002060006116a7868686611e42565b8152602001908152602001600020905060008180549050905060005b81811015611785578673ffffffffffffffffffffffffffffffffffffffff168382815481106116ee57fe5b9060005260206000200160009054906101000a900473ffffffffffffffffffffffffffffffffffffffff1673ffffffffffffffffffffffffffffffffffffffff1614611778576117778884838154811061174457fe5b9060005260206000200160009054906101000a900473ffffffffffffffffffffffffffffffffffffffff1688888861370d565b5b80806001019150506116c3565b506117938787878787612fd8565b6002600088815260200190815260200160002060006117b3878787611e42565b815260200190815260200160002060008773ffffffffffffffffffffffffffffffffffffffff1673ffffffffffffffffffffffffffffffffffffffff16815260200190815260200160002060008082016000905560018201600090555050600360008881526020019081526020016000206000611831878787611e42565b8152602001908152602001600020600061184b9190613b7f565b50505050505050565b600081116118ca576040517f08c379a00000000000000000000000000000000000000000000000000000000081526004018080602001828103825260128152602001807f50726963652063616e74206265207a65726f000000000000000000000000000081525060200191505060405180910390fd5b600060056000815480929190600101919050559050600460405180606001604052808381526020013373ffffffffffffffffffffffffffffffffffffffff1681526020018481525090806001815401808255809150506001900390600052602060002090600302016000909190919091506000820151816000015560208201518160010160006101000a81548173ffffffffffffffffffffffffffffffffffffffff021916908373ffffffffffffffffffffffffffffffffffffffff160217905550604082015181600201555050803373ffffffffffffffffffffffffffffffffffffffff167f0441c8f3d8bb6f2798e54498dec697384f8effb97b5fc9b9bc5776afffde6530846040518082815260200191505060405180910390a35050565b6119f3611e84565b73ffffffffffffffffffffffffffffffffffffffff1660008054906101000a900473ffffffffffffffffffffffffffffffffffffffff1673ffffffffffffffffffffffffffffffffffffffff1614611ab3576040517f08c379a00000000000000000000000000000000000000000000000000000000081526004018080602001828103825260208152602001807f4f776e61626c653a2063616c6c6572206973206e6f7420746865206f776e657281525060200191505060405180910390fd5b80600760006101000a81548173ffffffffffffffffffffffffffffffffffffffff021916908373ffffffffffffffffffffffffffffffffffffffff16021790555050565b611aff611e84565b73ffffffffffffffffffffffffffffffffffffffff1660008054906101000a900473ffffffffffffffffffffffffffffffffffffffff1673ffffffffffffffffffffffffffffffffffffffff1614611bbf576040517f08c379a00000000000000000000000000000000000000000000000000000000081526004018080602001828103825260208152602001807f4f776e61626c653a2063616c6c6572206973206e6f7420746865206f776e657281525060200191505060405180910390fd5b600073ffffffffffffffffffffffffffffffffffffffff168173ffffffffffffffffffffffffffffffffffffffff161415611c45576040517f08c379a0000000000000000000000000000000000000000000000000000000008152600401808060200182810382526026815260200180613bbe6026913960400191505060405180910390fd5b8073ffffffffffffffffffffffffffffffffffffffff1660008054906101000a900473ffffffffffffffffffffffffffffffffffffffff1673ffffffffffffffffffffffffffffffffffffffff167f8be0079c531659141344cd1fd0a4f28419497f9722a3daafe3b4186f6b6457e060405160405180910390a3806000806101000a81548173ffffffffffffffffffffffffffffffffffffffff021916908373ffffffffffffffffffffffffffffffffffffffff16021790555050565b670de0b6b3a764000081565b60006001831080611d1f5750600c83115b15611d2d5760009050611e3b565b6000808511905060008060048581611d4157fe5b06148015611d705750600060648581611d5657fe5b06141580611d6f575060006101908581611d6c57fe5b06145b5b90506000601c87111580611d8e5750818015611d8d5750601d8711155b5b905060006001871480611da15750600387145b80611dac5750600587145b80611db75750600687145b80611dc25750600887145b80611dcd5750600a87145b80611dd85750600c87145b9050600081158015611deb575060028814155b90506000601e8a11158015611dfd5750815b80611e125750601f8a11158015611e115750825b5b80611e265750838015611e255750600289145b5b9050858015611e325750805b96505050505050505b9392505050565b60008383836040516020018084815260200183815260200182815260200193505050506040516020818303038152906040528051906020012090509392505050565b600033905090565b828282611e9a838383611d0e565b611f0c576040517f08c379a000000000000000000000000000000000000000000000000000000000815260040180806020018281038252600c8152602001807f496e76616c69642064617465000000000000000000000000000000000000000081525060200191505060405180910390fd5b866005548110611f84576040517f08c379a00000000000000000000000000000000000000000000000000000000081526004018080602001828103825260198152602001807f526f6f6d20686173206e6f74206265656e20637265617465640000000000000081525060200191505060405180910390fd5b600073ffffffffffffffffffffffffffffffffffffffff1660048281548110611fa957fe5b906000526020600020906003020160010160009054906101000a900473ffffffffffffffffffffffffffffffffffffffff1673ffffffffffffffffffffffffffffffffffffffff161415612065576040517f08c379a00000000000000000000000000000000000000000000000000000000081526004018080602001828103825260158152602001807f526f6f6d20686173206265656e2072656d6f766564000000000000000000000081525060200191505060405180910390fd5b60006004898154811061207457fe5b9060005260206000209060030201905061209089898989610834565b15612103576040517f08c379a00000000000000000000000000000000000000000000000000000000081526004018080602001828103825260128152602001807f526f6f6d206e6f7420617661696c61626c65000000000000000000000000000081525060200191505060405180910390fd5b6000600260008b815260200190815260200160002060006121258b8b8b611e42565b815260200190815260200160002060003373ffffffffffffffffffffffffffffffffffffffff1673ffffffffffffffffffffffffffffffffffffffff16815260200190815260200160002060000154146121e7576040517f08c379a00000000000000000000000000000000000000000000000000000000081526004018080602001828103825260168152602001807f496e74656e7420616c726561647920637265617465640000000000000000000081525060200191505060405180910390fd5b3373ffffffffffffffffffffffffffffffffffffffff168160010160009054906101000a900473ffffffffffffffffffffffffffffffffffffffff1673ffffffffffffffffffffffffffffffffffffffff1614156122ad576040517f08c379a00000000000000000000000000000000000000000000000000000000081526004018080602001828103825260198152602001807f43616e6e6f7420626f6f6b20796f7572206f776e20726f6f6d0000000000000081525060200191505060405180910390fd5b6005600360008b815260200190815260200160002060006122cf8b8b8b611e42565b81526020019081526020016000208054905010612354576040517f08c379a00000000000000000000000000000000000000000000000000000000081526004018080602001828103825260138152602001807f4d617820696e74656e747320726561636865640000000000000000000000000081525060200191505060405180910390fd5b600360008a815260200190815260200160002060006123748a8a8a611e42565b8152602001908152602001600020339080600181540180825580915050600190039060005260206000200160009091909190916101000a81548173ffffffffffffffffffffffffffffffffffffffff021916908373ffffffffffffffffffffffffffffffffffffffff1602179055506040518060400160405280826002015481526020016001600360008d8152602001908152602001600020600061241a8d8d8d611e42565b81526020019081526020016000208054905003815250600260008b815260200190815260200160002060006124508b8b8b611e42565b815260200190815260200160002060003373ffffffffffffffffffffffffffffffffffffffff1673ffffffffffffffffffffffffffffffffffffffff16815260200190815260200160002060008201518160000155602082015181600101559050508060010160009054906101000a900473ffffffffffffffffffffffffffffffffffffffff1673ffffffffffffffffffffffffffffffffffffffff163373ffffffffffffffffffffffffffffffffffffffff168a7f9d58b08712bc1e874d7c3be499f112091776ce2e76f1983e106e62f3de116f7684600201548c8c8c6040518085815260200184815260200183815260200182815260200194505050505060405180910390a4505050505050505050565b60006125a583836040518060400160405280601e81526020017f536166654d6174683a207375627472616374696f6e206f766572666c6f770000815250613810565b905092915050565b8282826125bb838383611d0e565b61262d576040517f08c379a000000000000000000000000000000000000000000000000000000000815260040180806020018281038252600c8152602001807f496e76616c69642064617465000000000000000000000000000000000000000081525060200191505060405180910390fd5b8760055481106126a5576040517f08c379a00000000000000000000000000000000000000000000000000000000081526004018080602001828103825260198152602001807f526f6f6d20686173206e6f74206265656e20637265617465640000000000000081525060200191505060405180910390fd5b600073ffffffffffffffffffffffffffffffffffffffff16600482815481106126ca57fe5b906000526020600020906003020160010160009054906101000a900473ffffffffffffffffffffffffffffffffffffffff1673ffffffffffffffffffffffffffffffffffffffff161415612786576040517f08c379a00000000000000000000000000000000000000000000000000000000081526004018080602001828103825260158152602001807f526f6f6d20686173206265656e2072656d6f766564000000000000000000000081525060200191505060405180910390fd5b600060048a8154811061279557fe5b906000526020600020906003020190503373ffffffffffffffffffffffffffffffffffffffff168160010160009054906101000a900473ffffffffffffffffffffffffffffffffffffffff1673ffffffffffffffffffffffffffffffffffffffff161461286a576040517f08c379a00000000000000000000000000000000000000000000000000000000081526004018080602001828103825260098152602001807f4e6f74206f776e6572000000000000000000000000000000000000000000000081525060200191505060405180910390fd5b6000600260008c8152602001908152602001600020600061288c8b8b8b611e42565b815260200190815260200160002060008b73ffffffffffffffffffffffffffffffffffffffff1673ffffffffffffffffffffffffffffffffffffffff1681526020019081526020016000209050600081600001541415612954576040517f08c379a00000000000000000000000000000000000000000000000000000000081526004018080602001828103825260108152602001807f496e74656e74206e6f7420666f756e640000000000000000000000000000000081525060200191505060405180910390fd5b3373ffffffffffffffffffffffffffffffffffffffff168a73ffffffffffffffffffffffffffffffffffffffff168c7f63ea553483a92dc4cdae148a75656ef0ee49a22a2b969de4b7a85edda2ba5db084600001548d8d8d6040518085815260200184815260200183815260200182815260200194505050505060405180910390a46129e48a82600001546138d0565b6129f58b82600101548b8b8b613508565b600260008c81526020019081526020016000206000612a158b8b8b611e42565b815260200190815260200160002060008b73ffffffffffffffffffffffffffffffffffffffff1673ffffffffffffffffffffffffffffffffffffffff168152602001908152602001600020600080820160009055600182016000905550505050505050505050505050565b600081851080612a9a57508185148015612a9957508286105b5b80612abb57508185148015612aae57508286145b8015612aba5750838711155b5b90509695505050505050565b828282612ad5838383611d0e565b612b47576040517f08c379a000000000000000000000000000000000000000000000000000000000815260040180806020018281038252600c8152602001807f496e76616c69642064617465000000000000000000000000000000000000000081525060200191505060405180910390fd5b866005548110612bbf576040517f08c379a00000000000000000000000000000000000000000000000000000000081526004018080602001828103825260198152602001807f526f6f6d20686173206e6f74206265656e20637265617465640000000000000081525060200191505060405180910390fd5b600073ffffffffffffffffffffffffffffffffffffffff1660048281548110612be457fe5b906000526020600020906003020160010160009054906101000a900473ffffffffffffffffffffffffffffffffffffffff1673ffffffffffffffffffffffffffffffffffffffff161415612ca0576040517f08c379a00000000000000000000000000000000000000000000000000000000081526004018080602001828103825260158152602001807f526f6f6d20686173206265656e2072656d6f766564000000000000000000000081525060200191505060405180910390fd5b600060048981548110612caf57fe5b906000526020600020906003020190506000600260008b81526020019081526020016000206000612ce18b8b8b611e42565b815260200190815260200160002060003373ffffffffffffffffffffffffffffffffffffffff1673ffffffffffffffffffffffffffffffffffffffff1681526020019081526020016000209050600081600001541415612da9576040517f08c379a00000000000000000000000000000000000000000000000000000000081526004018080602001828103825260108152602001807f496e74656e74206e6f7420666f756e640000000000000000000000000000000081525060200191505060405180910390fd5b8160010160009054906101000a900473ffffffffffffffffffffffffffffffffffffffff1673ffffffffffffffffffffffffffffffffffffffff163373ffffffffffffffffffffffffffffffffffffffff168b7fc66b36fe14a47cdd3a7969a075263ab1169079476991203a45e09cb2a6ed515d8c8c8c60405180848152602001838152602001828152602001935050505060405180910390a4612e513382600001546138d0565b600260008b81526020019081526020016000206000612e718b8b8b611e42565b815260200190815260200160002060003373ffffffffffffffffffffffffffffffffffffffff1673ffffffffffffffffffffffffffffffffffffffff16815260200190815260200160002060008082016000905560018201600090555050612ee08a82600101548b8b8b613508565b50505050505050505050565b6000806000612eff600187018686611d0e565b15612f1557600186018585925092509250612f47565b612f23600180870186611d0e565b15612f3957600180860185925092509250612f47565b600180600186019250925092505b93509350939050565b600080828401905083811015612fce576040517f08c379a000000000000000000000000000000000000000000000000000000000815260040180806020018281038252601b8152602001807f536166654d6174683a206164646974696f6e206f766572666c6f77000000000081525060200191505060405180910390fd5b8091505092915050565b828282612fe6838383611d0e565b613058576040517f08c379a000000000000000000000000000000000000000000000000000000000815260040180806020018281038252600c8152602001807f496e76616c69642064617465000000000000000000000000000000000000000081525060200191505060405180910390fd5b8760055481106130d0576040517f08c379a00000000000000000000000000000000000000000000000000000000081526004018080602001828103825260198152602001807f526f6f6d20686173206e6f74206265656e20637265617465640000000000000081525060200191505060405180910390fd5b600073ffffffffffffffffffffffffffffffffffffffff16600482815481106130f557fe5b906000526020600020906003020160010160009054906101000a900473ffffffffffffffffffffffffffffffffffffffff1673ffffffffffffffffffffffffffffffffffffffff1614156131b1576040517f08c379a00000000000000000000000000000000000000000000000000000000081526004018080602001828103825260158152602001807f526f6f6d20686173206265656e2072656d6f766564000000000000000000000081525060200191505060405180910390fd5b600060048a815481106131c057fe5b906000526020600020906003020190503373ffffffffffffffffffffffffffffffffffffffff168160010160009054906101000a900473ffffffffffffffffffffffffffffffffffffffff1673ffffffffffffffffffffffffffffffffffffffff1614613295576040517f08c379a00000000000000000000000000000000000000000000000000000000081526004018080602001828103825260098152602001807f4e6f74206f776e6572000000000000000000000000000000000000000000000081525060200191505060405180910390fd5b6000600260008c815260200190815260200160002060006132b78b8b8b611e42565b815260200190815260200160002060008b73ffffffffffffffffffffffffffffffffffffffff1673ffffffffffffffffffffffffffffffffffffffff168152602001908152602001600020905060008160000154141561337f576040517f08c379a00000000000000000000000000000000000000000000000000000000081526004018080602001828103825260108152602001807f496e74656e74206e6f7420666f756e640000000000000000000000000000000081525060200191505060405180910390fd5b61338b8b8a8a8a610834565b156133fe576040517f08c379a00000000000000000000000000000000000000000000000000000000081526004018080602001828103825260138152602001807f526f6f6d20616c726561647920626f6f6b65640000000000000000000000000081525060200191505060405180910390fd5b61340c338260000154613969565b89600160008d8152602001908152602001600020600061342d8c8c8c611e42565b815260200190815260200160002060006101000a81548173ffffffffffffffffffffffffffffffffffffffff021916908373ffffffffffffffffffffffffffffffffffffffff1602179055503373ffffffffffffffffffffffffffffffffffffffff168a73ffffffffffffffffffffffffffffffffffffffff168c7fd8a6485f4b3d0a6ea8c3123ea92f2585aa854d380b83a26dadb80be6292ae0ea84600001548d8d8d6040518085815260200184815260200183815260200182815260200194505050505060405180910390a45050505050505050505050565b600060036000878152602001908152602001600020600061352a868686611e42565b8152602001908152602001600020600160036000898152602001908152602001600020600061355a888888611e42565b815260200190815260200160002080549050038154811061357757fe5b9060005260206000200160009054906101000a900473ffffffffffffffffffffffffffffffffffffffff169050806003600088815260200190815260200160002060006135c5878787611e42565b815260200190815260200160002086815481106135de57fe5b9060005260206000200160006101000a81548173ffffffffffffffffffffffffffffffffffffffff021916908373ffffffffffffffffffffffffffffffffffffffff16021790555084600260008881526020019081526020016000206000613647878787611e42565b815260200190815260200160002060008373ffffffffffffffffffffffffffffffffffffffff1673ffffffffffffffffffffffffffffffffffffffff168152602001908152602001600020600101819055506003600087815260200190815260200160002060006136b9868686611e42565b81526020019081526020016000208054806136d057fe5b6001900381819060005260206000200160006101000a81549073ffffffffffffffffffffffffffffffffffffffff02191690559055505050505050565b600060026000878152602001908152602001600020600061372f868686611e42565b815260200190815260200160002060008673ffffffffffffffffffffffffffffffffffffffff1673ffffffffffffffffffffffffffffffffffffffff168152602001908152602001600020905061378a8582600001546138d0565b6002600087815260200190815260200160002060006137aa868686611e42565b815260200190815260200160002060008673ffffffffffffffffffffffffffffffffffffffff1673ffffffffffffffffffffffffffffffffffffffff16815260200190815260200160002060008082016000905560018201600090555050505050505050565b60008383111582906138bd576040517f08c379a00000000000000000000000000000000000000000000000000000000081526004018080602001828103825283818151815260200191508051906020019080838360005b83811015613882578082015181840152602081019050613867565b50505050905090810190601f1680156138af5780820380516001836020036101000a031916815260200191505b509250505060405180910390fd5b5060008385039050809150509392505050565b8173ffffffffffffffffffffffffffffffffffffffff166108fc829081150290604051600060405180830381858888f19350505050158015613916573d6000803e3d6000fd5b503373ffffffffffffffffffffffffffffffffffffffff167f47db2abce6d5fbcd80ffd9b4ba74dcde804a746ef732bc7f8a70fabfc912c590826040518082815260200191505060405180910390a25050565b600061399a670de0b6b3a764000061398c600654856139e990919063ffffffff16565b613a6f90919063ffffffff16565b90506139c8600760009054906101000a900473ffffffffffffffffffffffffffffffffffffffff16826138d0565b6139e4836139df838561256390919063ffffffff16565b6138d0565b505050565b6000808314156139fc5760009050613a69565b6000828402905082848281613a0d57fe5b0414613a64576040517f08c379a0000000000000000000000000000000000000000000000000000000008152600401808060200182810382526021815260200180613be46021913960400191505060405180910390fd5b809150505b92915050565b6000613ab183836040518060400160405280601a81526020017f536166654d6174683a206469766973696f6e206279207a65726f000000000000815250613ab9565b905092915050565b60008083118290613b65576040517f08c379a00000000000000000000000000000000000000000000000000000000081526004018080602001828103825283818151815260200191508051906020019080838360005b83811015613b2a578082015181840152602081019050613b0f565b50505050905090810190601f168015613b575780820380516001836020036101000a031916815260200191505b509250505060405180910390fd5b506000838581613b7157fe5b049050809150509392505050565b5080546000825590600052602060002090810190613b9d9190613ba0565b50565b5b80821115613bb9576000816000905550600101613ba1565b509056fe4f776e61626c653a206e6577206f776e657220697320746865207a65726f2061646472657373536166654d6174683a206d756c7469706c69636174696f6e206f766572666c6f77a2646970667358221220eeef73d1877a71397f9f9bf896342322bf811b22c4c3a3a17580d330e25e6da464736f6c634300060c0033",
  "immutableReferences": {},
  "source": "pragma solidity 0.6.12;\n\nimport \"openzeppelin-solidity/contracts/access/Ownable.sol\";\nimport \"openzeppelin-solidity/contracts/math/SafeMath.sol\";\n\ncontract BnBookingEvents {\n    event RoomBooked(\n        uint256 indexed roomId,\n        address indexed booker,\n        address indexed owner,\n        uint256 price,\n        uint256 day,\n        uint256 month,\n        uint256 year\n    );\n    event PaymentSent(address indexed paymentReceiver, uint256 price);\n    event RoomCreated(address indexed owner, uint256 indexed roomId, uint256 price);\n    event RoomRemoved(address indexed owner, uint256 indexed roomId);\n    event PriceChanged(address indexed owner, uint256 indexed roomId, uint256 newPrice);\n    event BookIntentCreated(\n        uint256 indexed roomId,\n        address indexed booker,\n        address indexed owner,\n        uint256 price,\n        uint256 day,\n        uint256 month,\n        uint256 year\n    );\n    event BookIntentRejected(\n        uint256 indexed roomId,\n        address indexed booker,\n        address indexed owner,\n        uint256 price,\n        uint256 day,\n        uint256 month,\n        uint256 year\n    );\n    event BookIntentCancelled(\n        uint256 indexed roomId,\n        address indexed booker,\n        address indexed owner,\n        uint256 day,\n        uint256 month,\n        uint256 year\n    );\n}\n\ncontract BnBooking is Ownable, BnBookingEvents {\n    using SafeMath for uint256;\n\n    struct Room {\n        uint256 roomId;\n        address owner;\n        uint256 price;\n    }\n\n    struct BookingIntent {\n        uint256 price;\n        uint256 positionBooker;\n    }\n\n    // bookings: roomId -> hash(date) -> booker\n    mapping (uint256 => mapping (bytes32 => address)) internal bookings;\n\n    // bookingIntents: roomId -> hash(date) -> possibleBooker -> bookingIntent\n    mapping (uint256 => mapping (bytes32 => mapping (address => BookingIntent))) internal bookingIntents;\n\n    mapping (uint256 => mapping (bytes32 => address[])) internal possibleBookers;\n\n    Room[] public rooms;\n\n    uint256 public nextRoomId = 0;\n\n    uint256 public feeRate;\n\n    address payable public feeReceiver;\n\n    uint256 public constant FEE_RATE_PRECISION = 10 ** 18;\n\n    uint256 public constant MAX_INTENTS = 5;\n\n    constructor(uint256 _feeRate, address payable _feeReceiver) public {\n        feeRate = _feeRate;\n        feeReceiver = _feeReceiver;\n    }\n\n    modifier validDate(uint256 day, uint256 month, uint256 year) {\n        require(isValidDate(day, month, year), \"Invalid date\"); //TODO\n        _;\n    }\n\n    modifier roomExists(uint256 roomId) {\n        require(roomId < nextRoomId, \"Room has not been created\");\n        require(rooms[roomId].owner != address(0), \"Room has been removed\");\n        _;\n    }\n\n    function createRoom(uint256 price) public {\n        require(price > 0, \"Price cant be zero\");\n        uint256 roomId = nextRoomId++;\n        rooms.push(Room({\n            roomId: roomId,\n            price: price,\n            owner: msg.sender\n        }));\n        emit RoomCreated(msg.sender, roomId, price);\n    }\n\n    function setFeeRate(uint256 newFeeRate) public onlyOwner {\n        feeRate = newFeeRate;\n    }\n\n    function setFeeReceiver(address payable newFeeReceiver) public onlyOwner {\n        feeReceiver = newFeeReceiver;\n    }\n\n    function booked(uint256 roomId, uint256 day, uint256 month, uint256 year) public view validDate(day, month, year) returns(bool){\n        return bookings[roomId][getDateId(day, month, year)] != address(0);\n    }\n\n    function intentBook(uint256 roomId, uint256 day, uint256 month, uint256 year) public payable {\n        _intentBook(roomId, day, month, year);\n\n        Room storage room = rooms[roomId];\n        require(msg.value >= room.price, \"Price not reached\");\n        msg.sender.transfer(msg.value.sub(room.price));\n    }\n\n\n\n    function intentBookingBatch(\n        uint256 roomId,\n        uint256 initialDay,\n        uint256 initialMonth,\n        uint256 initialYear,\n        uint256 lastDay,\n        uint256 lastMonth,\n        uint256 lastYear\n    ) public payable {\n        uint256 day = initialDay;\n        uint256 month = initialMonth;\n        uint256 year = initialYear;\n\n        Room storage room = rooms[roomId];\n\n        uint256 accumulatedCost = 0;\n\n\n        while (lessOrEqualDate(day, month, year, lastDay, lastMonth, lastYear)) {\n            _intentBook(roomId, day, month, year);\n            (day, month, year) = incrementDate(day, month, year);\n            accumulatedCost = accumulatedCost.add(room.price);\n        }\n\n        require(msg.value >= accumulatedCost, \"Price not reached\");\n        msg.sender.transfer(msg.value.sub(accumulatedCost));\n    }\n\n\n    function reject(\n        uint256 roomId,\n        address payable booker,\n        uint256 day,\n        uint256 month,\n        uint256 year\n    ) public {\n        _reject(roomId, booker, day, month, year);\n    }\n\n    function rejectBatch(\n        uint256 roomId,\n        address payable booker,\n        uint256 initialDay,\n        uint256 initialMonth,\n        uint256 initialYear,\n        uint256 lastDay,\n        uint256 lastMonth,\n        uint256 lastYear\n    ) public payable {\n        uint256 day = initialDay;\n        uint256 month = initialMonth;\n        uint256 year = initialYear;\n        while (lessOrEqualDate(day, month, year, lastDay, lastMonth, lastYear)) {\n            _reject(roomId, booker, day, month, year);\n            (day, month, year) = incrementDate(day, month, year);\n        }\n    }\n\n    function accept(\n        uint256 roomId,\n        address booker,\n        uint256 day,\n        uint256 month,\n        uint256 year\n    ) public {\n        address[] storage intenters = possibleBookers[roomId][getDateId(day, month, year)];\n        uint256 numberIntenters = intenters.length;\n        for (uint256 i = 0; i < numberIntenters; i++) {\n            if (intenters[i] != booker)\n                _repayAndRemove(roomId, payable(intenters[i]), day, month, year);\n        }\n        _accept(roomId, booker, day, month, year);\n        delete bookingIntents[roomId][getDateId(day, month, year)][booker];\n        delete possibleBookers[roomId][getDateId(day, month, year)];\n    }\n\n    function acceptBatch(\n        uint256 roomId,\n        address booker,\n        uint256 initialDay,\n        uint256 initialMonth,\n        uint256 initialYear,\n        uint256 lastDay,\n        uint256 lastMonth,\n        uint256 lastYear\n    ) public payable {\n        uint256 day = initialDay;\n        uint256 month = initialMonth;\n        uint256 year = initialYear;\n        while (lessOrEqualDate(day, month, year, lastDay, lastMonth, lastYear)) {\n            _accept(roomId, booker, day, month, year);\n            BookingIntent storage intent = bookingIntents[roomId][getDateId(day, month, year)][booker];\n            moveLastPossibleBooker(roomId, intent.positionBooker, day, month, year);\n            delete bookingIntents[roomId][getDateId(day, month, year)][booker];\n            (day, month, year) = incrementDate(day, month, year);\n        }\n    }\n\n    function cancelBatch(\n        uint256 roomId,\n        uint256 initialDay,\n        uint256 initialMonth,\n        uint256 initialYear,\n        uint256 lastDay,\n        uint256 lastMonth,\n        uint256 lastYear\n    ) public {\n        uint256 day = initialDay;\n        uint256 month = initialMonth;\n        uint256 year = initialYear;\n        while (lessOrEqualDate(day, month, year, lastDay, lastMonth, lastYear)) {\n            _cancel(roomId, day, month, year);\n            (day, month, year) = incrementDate(day, month, year);\n        }\n    }\n\n    function _cancel(\n        uint256 roomId,\n        uint256 day,\n        uint256 month,\n        uint256 year\n    ) internal \n        validDate(day, month, year)\n        roomExists(roomId)\n    {\n        Room storage room = rooms[roomId];\n        BookingIntent storage intent = bookingIntents[roomId][getDateId(day, month, year)][msg.sender];\n        require(intent.price != 0, \"Intent not found\");\n        emit BookIntentCancelled(\n            roomId,\n            msg.sender,\n            room.owner,\n            day,\n            month,\n            year\n        );\n        sendPayment(msg.sender, intent.price);\n        delete bookingIntents[roomId][getDateId(day, month, year)][msg.sender];\n        moveLastPossibleBooker(roomId, intent.positionBooker, day, month, year);\n    }\n\n    function removeRoom(uint256 roomId) public roomExists(roomId) {\n        Room storage toRemove = rooms[roomId];\n        require(toRemove.owner == msg.sender || owner() == msg.sender, \"Not owner\");\n        delete(rooms[roomId]);\n        emit RoomRemoved(msg.sender, roomId);\n    }\n\n    function changePrice(uint256 roomId, uint256 newPrice) public roomExists(roomId) {\n        Room storage toChange = rooms[roomId];\n        require(toChange.owner == msg.sender, \"Not owner\");\n        toChange.price = newPrice;\n        emit PriceChanged(msg.sender, roomId, newPrice);\n    }\n\n    function lessOrEqualDate(\n        uint256 firstDay,\n        uint256 firstMonth,\n        uint256 firstYear,\n        uint256 secondDay,\n        uint256 secondMonth,\n        uint256 secondYear\n    ) internal pure returns (bool) {\n        return firstYear < secondYear ||\n        (firstYear == secondYear && firstMonth < secondMonth) ||\n        (firstYear == secondYear && firstMonth == secondMonth && firstDay <= secondDay);\n    }\n\n\n    function _intentBook(\n        uint256 roomId,\n        uint256 day,\n        uint256 month,\n        uint256 year\n    ) internal\n        validDate(day, month, year)\n        roomExists(roomId) {\n        Room storage room = rooms[roomId];\n        require(!booked(roomId, day, month, year), \"Room not available\");\n        require(bookingIntents[roomId][getDateId(day, month, year)][msg.sender].price == 0, \"Intent already created\");\n        require(room.owner != msg.sender, \"Cannot book your own room\");\n\n\n        require(possibleBookers[roomId][getDateId(day, month, year)].length < MAX_INTENTS, \"Max intents reached\");\n        possibleBookers[roomId][getDateId(day, month, year)].push(msg.sender);\n        bookingIntents[roomId][getDateId(day, month, year)][msg.sender] = BookingIntent({\n            price: room.price,\n            positionBooker: possibleBookers[roomId][getDateId(day, month, year)].length - 1\n        });\n\n        emit BookIntentCreated(\n            roomId,\n            msg.sender,\n            room.owner,\n            room.price,\n            day,\n            month,\n            year\n        );\n    }\n\n    function _accept(\n        uint256 roomId,\n        address booker,\n        uint256 day,\n        uint256 month,\n        uint256 year\n    ) internal\n        validDate(day, month, year)\n        roomExists(roomId) {\n        Room storage room = rooms[roomId];\n        require(room.owner == msg.sender, \"Not owner\");\n        BookingIntent storage intent = bookingIntents[roomId][getDateId(day, month, year)][booker];\n        require(intent.price != 0, \"Intent not found\");\n        require(!booked(roomId, day, month, year), \"Room already booked\");\n        splitPayment(msg.sender, intent.price);\n\n        bookings[roomId][getDateId(day, month, year)] = booker;\n        emit RoomBooked(\n            roomId,\n            booker,\n            msg.sender,\n            intent.price,\n            day,\n            month,\n            year\n        );\n    }\n\n    function _reject(\n        uint256 roomId,\n        address payable booker,\n        uint256 day,\n        uint256 month,\n        uint256 year\n    ) internal\n        validDate(day, month, year)\n        roomExists(roomId) {\n        Room storage room = rooms[roomId];\n        require(room.owner == msg.sender, \"Not owner\");\n        BookingIntent storage intent = bookingIntents[roomId][getDateId(day, month, year)][booker];\n        require(intent.price != 0, \"Intent not found\");\n        emit BookIntentRejected(\n            roomId,\n            booker,\n            msg.sender,\n            intent.price,\n            day,\n            month,\n            year\n        );\n        sendPayment(booker, intent.price);\n        moveLastPossibleBooker(roomId, intent.positionBooker, day, month, year);\n        delete bookingIntents[roomId][getDateId(day, month, year)][booker];\n    }\n\n    function incrementDate(uint256 day, uint256 month, uint256 year) internal pure returns (uint256, uint256, uint256) {\n        if (isValidDate(day + 1, month, year)) return (day + 1, month, year);\n        if (isValidDate(1, month + 1, year)) return (1, month + 1, year);\n        return (1, 1, year + 1);\n    }\n\n    function moveLastPossibleBooker(uint256 roomId, uint256 newBookerPosition, uint256 day, uint256 month, uint256 year) internal {\n        address movedBooker = possibleBookers[roomId][getDateId(day, month, year)][\n            possibleBookers[roomId][getDateId(day, month, year)].length - 1];\n        possibleBookers[roomId][getDateId(day, month, year)][newBookerPosition] = movedBooker;\n        bookingIntents[roomId][getDateId(day, month, year)][movedBooker].positionBooker = newBookerPosition;\n        possibleBookers[roomId][getDateId(day, month, year)].pop();\n    }\n\n    function splitPayment(address payable paymentReceiver, uint256 totalPayment) internal {\n        uint256 fees = totalPayment.mul(feeRate).div(FEE_RATE_PRECISION);\n        sendPayment(feeReceiver, fees);\n        sendPayment(paymentReceiver, totalPayment.sub(fees));\n    }\n\n    function sendPayment(address payable receiver, uint256 payment) internal {\n        receiver.transfer(payment);\n        emit PaymentSent(msg.sender, payment);\n\n    }\n\n    function _repayAndRemove(uint256 roomId, address payable booker, uint256 day, uint256 month, uint256 year) internal {\n        BookingIntent storage intent = bookingIntents[roomId][getDateId(day, month, year)][booker];\n        sendPayment(booker, intent.price);\n        delete bookingIntents[roomId][getDateId(day, month, year)][booker];\n    }\n    function getDateId(uint256 day, uint256 month, uint256 year) internal pure returns(bytes32){\n        return keccak256(abi.encodePacked(day, month, year));\n    }\n\n    function isValidDate(uint256 day, uint256 month, uint256 year) internal pure returns(bool) {\n        if (month < 1 || month > 12) return false;\n        bool dayIsPositive = day > 0;\n        bool leapYear = year % 4 == 0 && (year % 100 != 0 || year % 400 == 0);\n        bool doesntExceedFebruary = (day <= 28) || (leapYear && day <= 29);\n        bool isLongMonth = month == 1 ||\n            month == 3 ||\n            month == 5 ||\n            month == 6 ||\n            month == 8 ||\n            month == 10 ||\n            month == 12;\n        bool isShortMonth = !isLongMonth && month != 2;\n        bool doesntExceedMonth = day <= 30 && isShortMonth || day <= 31 && isLongMonth || doesntExceedFebruary && month == 2;\n        return dayIsPositive && doesntExceedMonth;\n    }\n\n}",
  "sourcePath": "/home/mpicco/code/taller2/bookbnb-contracts/contracts/BnBooking.sol",
  "compiler": {
    "name": "solc",
    "version": "0.6.12+commit.27d51765.Emscripten.clang"
  },
  "schemaVersion": "3.2.5",
  "updatedAt": "2021-02-26T22:22:59.163Z",
  "networkType": "ethereum",
  "devdoc": {
    "kind": "dev",
    "methods": {
      "owner()": {
        "details": "Returns the address of the current owner."
      },
      "renounceOwnership()": {
        "details": "Leaves the contract without owner. It will not be possible to call `onlyOwner` functions anymore. Can only be called by the current owner. NOTE: Renouncing ownership will leave the contract without an owner, thereby removing any functionality that is only available to the owner."
      },
      "transferOwnership(address)": {
        "details": "Transfers ownership of the contract to a new account (`newOwner`). Can only be called by the current owner."
      }
    },
    "version": 1
  },
  "userdoc": {
    "kind": "user",
    "methods": {},
    "version": 1
  }
}